:020000040800F2
:100000000000022039160008F1060008F306000877
:10001000F5060008F7060008F906000800000000D1
:10002000000000000000000000000000FB060008C7
:10003000FD06000800000000FF0600080107000898
:100040008916000889160008891600088916000814
:100050008916000889160008891600088916000804
:1000600089160008891600088916000889160008F4
:1000700089160008891600088916000889160008E4
:10008000891600088916000889160008000000007B
:1000900000000000000000000000000089160008B9
:1000A00089160008891600088916000889160008B4
:1000B00089160008891600088916000889160008A4
:1000C0008916000889160008891600088916000894
:1000D000891600088916000889160008000000002B
:1000E000891600088916000889160008000000001B
:1000F0000000000000000000000000008916000859
:1001000000000000891600088916000889160008FA
:1001100000000000000000000000000000000000DF
:100120008916000889160008891600088916000833
:100130008916000800000000000000000000000018
:100140000000000000000000000000008916000808
:100150008916000889160008891600088916000803
:100160008916000889160008000000000000000041
:10017000000000000000000000000000000000007F
:1001800000000000891600080000000000000000C8
:08019000891600088916000819
:1001980010B5054C237833B9044B13B10448AFF3B9
:1001A80000800123237010BD0C0000200000000017
:1001B800E416000808B5034B1BB103490348AFF325
:1001C800008008BD0000000010000020E4160008B0
:1001D80053B94AB9002908BF00281CBF4FF0FF31A6
:1001E8004FF0FF3000F074B9ADF1080C6DE904CEA2
:1001F80000F006F8DDF804E0DDE9022304B07047FA
:100208002DE9F047089D04468E46002B4DD18A42C1
:10021800944669D9B2FA82F252B101FA02F3C2F1F4
:10022800200120FA01F10CFA02FC41EA030E944085
:100238004FEA1C48210CBEFBF8F61FFA8CF708FBA6
:1002480016E341EA034306FB07F199420AD91CEB7E
:10025800030306F1FF3080F01F81994240F21C81B0
:10026800023E63445B1AA4B2B3FBF8F008FB1033F8
:1002780044EA034400FB07F7A7420AD91CEB04042D
:1002880000F1FF3380F00A81A74240F207816444FD
:10029800023840EA0640E41B00261DB1D440002382
:1002A800C5E900433146BDE8F0878B4209D9002DE6
:1002B80000F0EF800026C5E9000130463146BDE870
:1002C800F087B3FA83F6002E4AD18B4202D38242DA
:1002D80000F2F980841A61EB030301209E46002D89
:1002E800E0D0C5E9004EDDE702B9FFDEB2FA82F2DE
:1002F800002A40F09280A1EB0C014FEA1C471FFA3C
:100308008CFE0126200CB1FBF7F307FB131140EA22
:1003180001410EFB03F0884208D91CEB010103F1EF
:10032800FF3802D2884200F2CB804346091AA4B2B1
:10033800B1FBF7F007FB101144EA01440EFB00FE85
:10034800A64508D91CEB040400F1FF3102D2A645EA
:1003580000F2BB800846A4EB0E0440EA03409CE789
:10036800C6F12007B34022FA07FC4CEA030C20FA36
:1003780007F401FA06F31C43F9404FEA1C4900FA56
:1003880006F3B1FBF9F8200C1FFA8CFE09FB1811D3
:1003980040EA014108FB0EF0884202FA06F20BD946
:1003A8001CEB010108F1FF3A80F08880884240F296
:1003B8008580A8F102086144091AA4B2B1FBF9F0DA
:1003C80009FB101144EA014100FB0EFE8E4508D9D5
:1003D8001CEB010100F1FF346CD28E456AD902385A
:1003E800614440EA0840A0FB0294A1EB0E01A1423F
:1003F800C846A64656D353D05DB1B3EB080261EBAD
:100408000E0101FA07F722FA06F3F1401F43C5E986
:10041800007100263146BDE8F087C2F12003D840BC
:100428000CFA02FC21FA03F3914001434FEA1C47FE
:100438001FFA8CFEB3FBF7F007FB10360B0C43EAF0
:10044800064300FB0EF69E4204FA02F408D91CEBA0
:10045800030300F1FF382FD29E422DD9023863449E
:100468009B1B89B2B3FBF7F607FB163341EA03413E
:1004780006FB0EF38B4208D91CEB010106F1FF388D
:1004880016D28B4214D9023E6144C91A46EA004684
:1004980038E72E46284605E70646E3E61846F8E616
:1004A8004B45A9D2B9EB020864EB0C0E0138A3E75F
:1004B8004646EAE7204694E74046D1E7D0467BE740
:1004C800023B614432E7304609E76444023842E7B8
:1004D800704700BF30B58BB000240594069407948C
:1004E800089409940194224B1A6B42F004021A638F
:1004F8001A6B02F004020192019A02941A6B42F0FC
:1005080080021A631A6B02F080020292029A039424
:100518001A6B42F001021A631A6B02F0010203928D
:10052800039A04941A6B42F002021A631B6B03F0DD
:1005380002030493049B0F4D22462021284600F015
:1005480008FE4FF4005305934FF4041306930794E1
:1005580005A9094800F016FD2023059301230693F9
:100568000794089405A9284600F00CFD0BB030BD8F
:1005780000380240000002400008024072B6FEE760
:1005880008B50A480A4B03604FF4E133436000237F
:100598008360C36003610C2242618361C36100F020
:1005A800A6FF00B908BDFFF7E9FF00BF80000020E3
:1005B8000044004008B50D480D4B03604FF48273AA
:1005C800436000238360C360036143614FF480226A
:1005D8008261C3610362436283620A23C36200F0DB
:1005E80035F900B908BDFFF7C9FF00BF2800002092
:1005F8000038004000B595B03022002108A801F06D
:1006080065F80023039304930593069307930193D6
:100618001E4A116C41F080511164126C02F0805234
:100628000192019A02931A4A116841F440411160FB
:10063800126802F440420292029A022108910122B1
:100648000B9210220C920E910F9310924FF4A873F4
:10065800119304231293139308A800F057F980B953
:100668000F23039302210491002305934FF4805232
:100678000692079303A800F0AFFB20B915B05DF808
:1006880004FBFFF77BFFFFF779FF00BF003802404C
:100698000070004008B500F0EFFDFFF7ABFFFFF773
:1006A80019FFFFF76DFFFFF785FF20210A4800F0CB
:1006B80056FD4FF47A7000F00BFE4FF400510748D6
:1006C80000F040FD0028F0D164230C2204490548BD
:1006D80000F03DFFE9E700BF0000024000080240CB
:1006E800FC16000880000020FEE7FEE7FEE7FEE7B4
:1006F800FEE770477047704708B500F0D7FD08BDA2
:1007080000B583B0002100910C4B5A6C42F4804232
:100718005A645A6C02F480420092009A01911A6C51
:1007280042F080521A641B6C03F080530193019BC2
:10073800072000F01DFD03B05DF804FB00380240FF
:10074800F0B589B0002303930493059306930793A8
:1007580002681F4B9A4201D009B0F0BD00240094F2
:1007680003F500331A6C42F480421A641A6C02F4DE
:1007780080420092009A01941A6B42F004021A63B4
:100788001A6B02F004020192019A02941A6B42F069
:1007980002021A631B6B03F002030293029B0C23F1
:1007A80003930227049703260696052507950DEB64
:1007B8000301084800F0E6FB4FF4A05303930497A5
:1007C80005940696079503A9034800F0DBFBC3E7E9
:1007D80000380040000802400004024000B589B01B
:1007E8000023039304930593069307930268154B1C
:1007F8009A4202D009B05DF804FB0021019103F58B
:10080800FA331A6C42F400321A641A6C02F4003299
:100818000192019A02911A6B42F001021A631B6B52
:1008280003F001030293029B0C2303930223049316
:10083800032306930723079303A9034800F0A2FBA9
:10084800D8E700BF004400400000024000285AD00A
:1008580010B50446436A33B94368B3F5827F05D0BF
:100868000023C36102E00023036143610023A36204
:1008780094F85130002B40D0022384F8513022687C
:10088800136823F040031360636803F48273A2685B
:1008980002F404421343E26802F40062134322693B
:1008A80002F002021343626902F001021343A269D3
:1008B80002F400721343E26902F038021343226A19
:1008C80002F080021343A26A02F400522168134323
:1008D8000B60638B03F00403626A02F01002216864
:1008E80013434B602268D36923F40063D36100206B
:1008F8006065012384F8513010BD84F850302046DB
:10090800FFF71EFFB8E7012070470000002800F03D
:10091800E08170B582B00446036813F0010F3BD044
:100928009F4B9B6803F00C03042B2CD09C4B9B68BB
:1009380003F00C03082B21D06368B3F5803F4FD038
:10094800B3F5A02F52D0964B1A6822F480321A6061
:100958001A6822F480221A606368002B50D000F0D5
:10096800B1FC05468E4B1B6813F4003F14D100F010
:10097800A9FC401B6428F5D90320B1E1884B5B68CA
:1009880013F4800FD8D0864B1B6813F4003F03D0B4
:100998006368002B00F09F81236813F0020F54D086
:1009A8007F4B9B6813F00C0F3ED07D4B9B6803F088
:1009B8000C03082B33D0E368002B68D0794B012255
:1009C8001A6000F07FFC0546754B1B6813F0020F98
:1009D80054D100F077FC401B0228F5D903207FE1B1
:1009E8006F4A136843F480331360B5E76C4B1A6899
:1009F80042F480221A601A6842F480321A60ABE727
:100A080000F060FC0546664B1B6813F4003FC3D03A
:100A180000F058FC401B6428F5D9032060E1604BC6
:100A28005B6813F4800FC6D15D4B1B6813F0020F8F
:100A380003D0E368012B40F05081594A136823F032
:100A4800F803216943EAC1031360236813F0080F10
:100A580042D063696BB3534B0122C3F8802E00F078
:100A680031FC05464E4B5B6F13F0020F34D100F09A
:100A780029FC401B0228F5D9032031E1484A1368B4
:100A880023F0F803216943EAC1031360DDE7454B0E
:100A980000221A6000F016FC0546414B1B6813F053
:100AA800020FD2D000F00EFC401B0228F5D903201B
:100AB80016E13C4B0022C3F8802E00F003FC0546EB
:100AC800374B5B6F13F0020F06D000F0FBFB401BA7
:100AD8000228F5D9032003E1236813F0040F77D027
:100AE8002F4B1B6C13F0805F33D1002301932C4BE9
:100AF8001A6C42F080521A641B6C03F08053019305
:100B0800019B0125284B1B6813F4807F23D0A36821
:100B1800012B34D0052B38D0214B1A6F22F001025B
:100B28001A671A6F22F004021A67A368002B3DD0D7
:100B380000F0C8FB06461A4B1B6F13F0020F46D194
:100B480000F0C0FB801B41F288339842F3D90320A0
:100B5800C6E00025D6E7144A136843F4807313608F
:100B680000F0B0FB0646104B1B6813F4807FCED113
:100B780000F0A8FB801B0228F5D90320B0E0084A42
:100B8800136F43F001031367CFE7054B1A6F42F069
:100B980004021A671A6F42F001021A67C5E700BF1C
:100BA80000380240000047420070004000F08AFB15
:100BB8000646524B1B6F13F0020F08D000F082FB61
:100BC800801B41F288339842F3D9032088E0EDB9BD
:100BD800A369002B00F08380484A926802F00C0257
:100BE800082A51D0022B17D0454B00221A6600F074
:100BF80069FB0446414B1B6813F0007F42D000F0AC
:100C080061FB001B0228F5D9032069E03B4A136CFD
:100C180023F080531364DBE7394B00221A6600F097
:100C280051FB0546354B1B6813F0007F06D000F0DA
:100C380049FB401B0228F5D9032051E0E369226AE9
:100C48001343626A43EA8213A26A5208013A43EAEA
:100C58000243E26A43EA0263284A5360284B0122AE
:100C68001A6600F02FFB0446244B1B6813F0007F24
:100C780006D100F027FB001B0228F5D903202FE03E
:100C880000202DE000202BE0012B2BD01B4B5B68B4
:100C980003F48001E269914226D103F03F02216A00
:100CA8008A4223D1616A47F6C0721A40B2EB811FAB
:100CB8001ED103F44031A26A5208013AB1EB024F47
:100CC80018D103F07063E26AB3EB026F14D100200D
:100CD80006E001207047012002E0012000E000202A
:100CE80002B070BD0120FBE70120F9E70120F7E71A
:100CF8000120F5E70120F3E70120F1E70038024081
:100D08000000474208B5314B9B6803F00C03042BE5
:100D180057D0082B57D12D4B5A6802F03F025B6819
:100D280013F4800F2AD0294B5968C1F3881C4FEA65
:100D38004C11B1EB0C006EEB0E0E4FEA8E1343EA2A
:100D480090638101091A63EB0E03DB0043EA5173D8
:100D5800C90011EB0C0C43F10003590200234FEAC0
:100D68004C2041EADC51FFF733FA184B5B68C3F3B8
:100D7800014301335B00B0FBF3F025E0134B5968E6
:100D8800C1F3881C4FEA4C11B1EB0C006EEB0E0E50
:100D98004FEA8E1343EA90638101091A63EB0E034D
:100DA800DB0043EA5173C90011EB0C0C43F100035B
:100DB800990200234FEA8C2041EA9C51FFF708FA78
:100DC800D3E7034800E0034808BD00BF00380240ED
:100DD80000127A000024F400002800F09B8070B50F
:100DE8000D4604464F4B1B6803F007038B4208D29D
:100DF800CBB24C4A1370136803F007038B4240F0E0
:100E08008B80236813F0020F17D013F0040F04D05F
:100E1800454A936843F4E0539360236813F0080F3E
:100E280004D0414A936843F4604393603E4A936810
:100E380023F0F003A1680B439360236813F0010FBC
:100E480032D06368012B21D09A1E012A25D9364A4F
:100E5800126812F0020F61D033498A6822F0030247
:100E680013438B6000F02EFA06462F4B9B6803F065
:100E78000C036268B3EB820F16D000F023FA801BD4
:100E880041F288339842F0D9032042E0264A12689A
:100E980012F4003FE0D101203BE0234A126812F02F
:100EA800007FD9D1012034E01E4B1B6803F00703F3
:100EB800AB4207D9EAB21B4B1A701B6803F0070351
:100EC800AB422DD1236813F0040F06D0164A93685D
:100ED80023F4E053E1680B439360236813F0080F91
:100EE80007D0114A936823F46043216943EAC10398
:100EF8009360FFF707FF0C4B9B68C3F303130B4A80
:100F0800D35CD8400A4B18600A4B186800F08EF979
:100F1800002070BD012070470120FAE70120F8E7A2
:100F28000120F6E7003C0240003802400C17000898
:100F38000800002004000020014B1868704700BF1B
:100F48000800002008B5FFF7F7FF044B9B68C3F3C0
:100F58008223034AD35CD84008BD00BF0038024052
:100F68001C17000808B5FFF7E7FF044B9B68C3F39D
:100F78004233034AD35CD84008BD00BF0038024062
:100F88001C17000800230F2B00F2D28070B582B026
:100F980060E085685E000324B44025EA0405CC6857
:100FA800B4402C438460456825EA02054C68C4F3C4
:100FB80000129A402A4342605AE0DC08083450F88C
:100FC800246003F0070295000F22AA4026EA020EC9
:100FD8000A69AA4042EA0E0240F824205CE0042292
:100FE80000E0002202FA0EF22A430234514D45F87D
:100FF8002420514A94686FEA0C0224EA0C054E68D2
:1010080016F4801F01D04CEA04054B4CA560E46837
:1010180002EA04054E6816F4001F01D04CEA0405E4
:10102800454CE560646802EA04054E6816F4003F22
:1010380001D04CEA0405404C6560246822404D68A4
:1010480015F4803F01D04CEA04023B4C2260013386
:101058000F2B6BD801229A400C6804EA020C32EA82
:101068000404F4D14C6804F00304013C012C90D929
:101078004A6802F00302032A09D0C4685D0003220B
:10108800AA4024EA02048A68AA402243C2604A6845
:1010980002F00302022A90D004684FEA430E0322AA
:1010A80002FA0EF224EA02044A6802F0030202FA83
:1010B8000EF2224302604A6812F4403FC7D0002271
:1010C80001921E4A546C44F480445464526C02F4F5
:1010D80080420192019A9C08A51C164A52F8255094
:1010E80003F003024FEA820E0F2202FA0EF225EAFB
:1010F8000205134A90423FF474AF02F580629042B1
:101108000ED002F5806290420CD002F580629042C7
:101118000AD002F5806290423FF461AF072261E78E
:1011280001225FE702225DE703225BE702B070BDA0
:10113800704700BF00380140003C014000380240C1
:10114800000002400369194201D0012070470020C5
:1011580070470AB18161704709048161704743692A
:1011680001EA030221EA030141EA02418161704771
:10117800074AD36823F4E0631B041B0C000200F445
:10118800E060034343F0BF6343F40033D360704728
:1011980000ED00E000B5194BDB68C3F30223C3F18F
:1011A800070CBCF1040F28BF4FF0040C03F1040E28
:1011B800BEF1060F18D9033B4FF0FF3E0EFA0CFCA8
:1011C80021EA0C0199400EFA03F322EA03031943BA
:1011D80000280BDB0901C9B200F1604000F561404D
:1011E80080F800135DF804FB0023E5E700F00F002A
:1011F8000901C9B2024B1954F4E700BF00ED00E041
:1012080014ED00E00138B0F1807F0BD24FF0E023FD
:101218005861054AF02182F82310002098610722BE
:101228001A6170470120704700ED00E010B50446D0
:101238000E4B18784FF47A73B3FBF0F30C4A10682E
:10124800B0FBF3F0FFF7DEFF68B90F2C01D90120DE
:101258000AE0002221464FF0FF30FFF79BFF054BC5
:101268001C60002000E0012010BD00BF000000202D
:10127800080000200400002008B50B4B1A6842F44F
:1012880000721A601A6842F480621A601A6842F49E
:1012980080721A600320FFF76BFF0020FFF7C6FF7C
:1012A800FFF72EFA002008BD003C0240034A1168EF
:1012B800034B1B780B441360704700BFC800002025
:1012C80000000020014B1868704700BFC8000020CC
:1012D80038B50446FFF7F6FF0546B4F1FF3F02D0E4
:1012E800044B1B781C44FFF7EDFF401BA042FAD3C8
:1012F80038BD00BF00000020026802F10C0353E86B
:10130800003F23F490730C3242E800310029F3D1F6
:10131800026802F1140353E8003F23F0010314327A
:1013280042E800310029F3D1036B012B05D02023BB
:1013380080F84230002303637047026802F10C030F
:1013480053E8003F23F010030C3242E80031002933
:10135800F3D1ECE738B504460268136923F4405327
:10136800C1680B43136183680269134342691343DD
:10137800C2691A430168CB6823F4164323F00C03AF
:101388001343CB600268536923F4407381690B43AC
:1013980053610368314A934206D002F58062934252
:1013A80002D0FFF7CFFD01E0FFF7DCFDE369B3F5FD
:1013B800004F29D00021031849411B1841F10001B1
:1013C800C90041EA5371DB00181863684FEA8302C9
:1013D8004FEA937341F10001FEF7FAFE204DA5FB99
:1013E80000325109642303FB11031B013233A5FBAF
:1013F80003235B0903F0F00202EB011203F00F0371
:10140800216813448B6038BD0023021843EB0301A5
:10141800121841F10001C90041EA5271D2001018B6
:1014280041F10001626892185B41FEF7D1FE0C4D54
:10143800A5FB00325109642303FB1103DB0032339F
:10144800A5FB03235B095A0002F4F87202EB0112B0
:1014580003F00703216813448B60D4E700100140B0
:101468001F85EB512DE9F04383B005460E4617461C
:101478009946DDF828802C68246836EA04030CBFF6
:101488004FF0010C4FF0000CBC4528D1B8F1FF3FDC
:10149800F1D0FFF717FFA0EB0900404523D8B8F1BA
:1014A800000F22D02B68DA6812F0040FE3D0802EE8
:1014B800E1D0402EDFD01A6812F0080FDBD00024EC
:1014C80001941A6801925B680193019B2846FFF713
:1014D80013FF08236B6485F84040012000E00020DA
:1014E80003B0BDE8F0830320FAE70320F8E760B310
:1014F80010B5044690F8413013B3242384F84130E2
:101508002268D36823F40053D3602046FFF722FFF4
:101518002268136923F4904313612268536923F006
:101528002A0353612268D36843F40053D360002030
:101538006064202384F8413084F84230606310BD31
:1015480080F84030FFF74AF9D7E7012070472DE9C6
:10155800F04182B01E4690F84130DBB2202B56D1C4
:1015680004460D469046002955D00AB901204FE09F
:1015780000234364212380F84130FFF7A3FE074688
:10158800A4F82480A4F82680A368B3F5805F02D06D
:101598004FF0000814E023692BB34FF000080FE068
:1015A800202384F84130032032E038F8023B2268D7
:1015B800C3F308035360E28C92B2013A92B2E28418
:1015C800E38C9BB293B100963B46002280212046D3
:1015D800FFF748FF0028E3D1002DE6D015F8012BCE
:1015E80023685A60E7E7A8460025E9E700963B46E6
:1015F800002240212046FFF735FF18B9202384F840
:10160800413005E0202384F84130032000E0022027
:1016180002B0BDE8F0810120FAE70000034AD2F8E1
:10162800883043F47003C2F88830704700ED00E05A
:10163800DFF834D0FFF7F2FF0C480D490D4A0023BC
:1016480002E0D458C4500433C4188C42F9D30A4A6F
:101658000A4C002301E013600432A242FBD300F0DD
:1016680011F8FFF717F8704700000220000000206B
:101678000C000020341700080C000020CC000020CB
:10168800FEE7000070B50D4D0D4C641BA41000263C
:10169800A64209D10B4D0C4C00F020F8641BA41095
:1016A8000026A64205D170BD55F8043B984701367F
:1016B800EEE755F8043B98470136F2E72C17000887
:1016C8002C1700082C17000830170008024403469E
:1016D800934200D1704703F8011BF9E7F8B500BF42
:1016E800F8BC08BC9E467047F8B500BFF8BC08BCFB
:0416F8009E46704753
:1016FC0048656C6C6F20576F726C640A00000000B8
:10170C0000000000000000000102030406070809A5
:08171C000000000001020304BB
:08172400E4EAFF7F0100000070
:04172C00BD010008F3
:041730009901000813
:0C17340001000000100000000024F40080
:0400000508001639A0
:00000001FF
